S00C00006C6162342E73726563B5
S11300000C9434000C9451000C9451000C94510045
S11300100C9440010C9451000C9451000C94510028
S11300200C9451000C9451000C9451000C94510008
S11300300C9451000C9451000C9451000C945100F8
S11300400C9467010C9451000C9451000C945100D1
S11300500C9451000C94DD010C9451000C9451004B
S11300600C9451000C94510011241FBECFEFD8E022
S1130070DEBFCDBF11E0A0E0B1E0EEE0F4E002C0ED
S113008005900D92A032B107D9F721E0A0E2B1E0CA
S113009001C01D92A433B207E1F70E94BC000C9486
S11300A005020C9400008FEF8AB91BB884B915B807
S11300B08FE087B980EF88B9E8E6F0E0808182605C
S11300C08083ECE6F0E08081806380831092C1003D
S11300D0089580912801909129019C0135952795D7
S11300E03595279535952795359527952F70332781
S11300F03093330120933201880F991F880F991F81
S113010090932301809322012091260130912701AD
S11301102115310519F4816085B905C021303105F7
S113012011F4826085B980913201806F88B9089595
S113013085B5856085BD84E686BDEEE6F0E0808108
S1130140816080830895ECE7F0E010828081806410
S11301508083808180628083808186628083EAE7F5
S1130160F0E0108280818068808380818860808351
S11301708081876080830895F8940E9453000E94D0
S113018098000E94A30078941092210110922001FB
S113019010922B0110922A01109233011092320115
S11301A080912C0190912D010A9749F410922D0110
S11301B010922C01EAE7F0E08081806480838091D2
S11301C0200190912101019781F410922101109254
S11301D02001809128019091290101969093290191
S11301E0809328010E94690015C080912A01909192
S11301F02B01019779F410922B0110922A0180911E
S11302002801909129010197909329018093280155
S11302100E946900809130019091310182959295FC
S1130220907F9827807F9827209124013091250181
S1130230822B932B20912801309129018217930757
S1130240B9F481E090E090932F0180932E01809186
S1130250260190912701009721F48BB184608BB91A
S11302609FCF019709F09CCF8BB184608BB998CF55
S11302708BB18B7F8BB910922F0110922E0190CFEE
S11302801F920F920FB60F9211248F939F9334995C
S11302900BC081E090E090932101809320011092A3
S11302A02B0110922A010CC035990AC01092210129
S11302B01092200181E090E090932B0180932A0119
S11302C09F918F910F900FBE0F901F9018951F92C2
S11302D00F920FB60F9211248F939F93EF93FF9376
S11302E084E686BD85B3816085BB80912C019091A5
S11302F02D01019690932D0180932C01809126016C
S113030090912701009741F50196909327018093DE
S1130310260185B18D7F85B985B1816085B98091CC
S11303202E0190912F01019761F4E0912401F09145
S11303302501EE0FFF1FE050FF4F808184608BB9D1
S113034033C0E0912401F0912501EE0FFF1FE0502E
S1130350FF4F80818BB928C0019731F51092270196
S11303601092260185B18E7F85B985B1826085B9E9
S113037080912E0190912F01019761F4E091300159
S1130380F0913101EE0FFF1FE050FF4F8081846038
S11303908BB90AC0E0913001F0913101EE0FFF1FDB
S11303A0E050FF4F80818BB9FF91EF919F918F9126
S11303B00F900FBE0F901F9018951F920F920FB6BB
S11303C00F9211248F939F93EF93FF93E9E7F0E04B
S11303D080818F7090E09093250180932401808127
S11303E082958F7090E09093310180933001EAE719
S11303F0F0E0808180618083FF91EF919F918F91E4
S11104000F900FBE0F901F901895F894FFCF29
S113040EF9002100BA00AB006300CB00DB00A100B1
S113041EFB00EB00F3005B00D8003B00DA00D200D7
S9030000FC
